:10000000EAC0000005C1000002C1000000C10000FC
:10001000FEC00000FCC00000FAC00000F8C00000F4
:10002000F6C00000EFC600000C94570DF0C00000B1
:10003000EEC00000ECC00000EAC00000E8C0000014
:10004000E6C00000E4C00000E2C00000E0C0000024
:10005000DEC00000DCC00000DAC00000D8C0000034
:10006000D6C00000D4C00000D2C00000D0C0000044
:10007000CEC00000CCC00000CAC00000C8C0000054
:10008000C6C00000C4C00000C2C00000C0C0000064
:10009000BEC00000BCC00000BAC00000B8C0000074
:1000A000B6C00000B4C00000B2C0000008033100B8
:1000B0002E003000000042034C004C004F00410075
:1000C000440020002D0020004C006F00770020002D
:1000D0004C006100740065006E0063007900200030
:1000E0004F00700065006E00200041006400610058
:1000F000700074006500720000002A03770077002A
:1001000077002E006200720075006E006F006600BE
:100110007200650069007400610073002E006300C6
:100120006F006D0000000403090409029900040136
:1001300000A0FA0904000002FF5D01001121000186
:10014000012581140000000013010800000705814B
:10015000032000040705010320000809040100042E
:10016000FF5D03001B2100010101824001022016F6
:1001700083000000000000160300000000000007DC
:1001800005820320000207050203200004070583FF
:1001900003200040070503032000100904020001AA
:1001A000FF5D020009210001012284070007058488
:1001B000032000100904030000FFFD1304064100A2
:1001C00001010312010002FFFFFF405E048E0214D2
:1001D00001010203010011241FBECFEFDAE0DEBFF0
:1001E000CDBF11E0A0E0B1E0E2ECFEE102C005907D
:1001F0000D92A231B107D9F721E0A2E1B1E001C02F
:100200001D92A936B207E1F7B0D20C945F0FF8CE79
:100210000F920FB60F922F93EF9300000000000093
:1002200000000000000000000000000000000000CE
:1002300000000000000000000000000000000000BE
:1002400000000000000000000000000000000000AE
:10025000000000000000000000000000000000009E
:10026000000000000000000000000000000000008E
:10027000000000000000000000000000000000007E
:10028000000000000000000000000000000000006E
:1002900000000000000000000000E9B1E1FB20F9CF
:1002A000000000000000000000000000000000004E
:1002B000000000000000000000000000000000003E
:1002C000000000000000000000000000000000002E
:1002D000000000000000000000000000000000001E
:1002E000000000000000000000000000000000000E
:1002F00000000000000000000000000000000000FE
:1003000000000000000000000000000000000000ED
:1003100000000000000000000000000000000000DD
:1003200000000000000000000000E9B1E1FB21F93D
:1003300000000000000000000000000000000000BD
:1003400000000000000000000000000000000000AD
:10035000000000000000000000000000000000009D
:10036000000000000000000000000000000000008D
:10037000000000000000000000000000000000007D
:10038000000000000000000000000000000000006D
:10039000000000000000000000000000000000005D
:1003A000000000000000000000000000000000004D
:1003B00000000000000000000000E9B1E1FB22F9AC
:1003C000000000000000000000000000000000002D
:1003D000000000000000000000000000000000001D
:1003E000000000000000000000000000000000000D
:1003F00000000000000000000000000000000000FD
:1004000000000000000000000000000000000000EC
:1004100000000000000000000000000000000000DC
:1004200000000000000000000000000000000000CC
:1004300000000000000000000000000000000000BC
:1004400000000000000000000000E9B1E1FB23F91A
:10045000000000000000000000000000000000009C
:10046000000000000000000000000000000000008C
:10047000000000000000000000000000000000007C
:10048000000000000000000000000000000000006C
:10049000000000000000000000000000000000005C
:1004A000000000000000000000000000000000004C
:1004B000000000000000000000000000000000003C
:1004C000000000000000000000000000000000002C
:1004D00000000000000000000000E9B1E1FB24F989
:1004E000000000000000000000000000000000000C
:1004F00000000000000000000000000000000000FC
:1005000000000000000000000000000000000000EB
:1005100000000000000000000000000000000000DB
:1005200000000000000000000000000000000000CB
:1005300000000000000000000000000000000000BB
:1005400000000000000000000000000000000000AB
:10055000000000000000000000000000000000009B
:1005600000000000000000000000E9B1E1FB25F9F7
:10057000000000000000000000000000000000007B
:10058000000000000000000000000000000000006B
:10059000000000000000000000000000000000005B
:1005A000000000000000000000000000000000004B
:1005B000000000000000000000000000000000003B
:1005C000000000000000000000000000000000002B
:1005D000000000000000000000000000000000001B
:1005E000000000000000000000000000000000000B
:1005F00000000000000000000000E9B1E1FB26F966
:1006000000000000000000000000000000000000EA
:1006100000000000000000000000000000000000DA
:1006200000000000000000000000000000000000CA
:1006300000000000000000000000000000000000BA
:1006400000000000000000000000000000000000AA
:10065000000000000000000000000000000000009A
:10066000000000000000000000000000000000008A
:10067000000000000000000000000000000000007A
:1006800000000000000000000000E9B1E1FB27F9D4
:10069000209520934E0121E020934F01EF912F915F
:1006A0000F900FBE0F901895000000000000000092
:1006B00000000000000000000000089558985098C5
:1006C000599851980895EAB1E360EAB90000000032
:1006D000000000000000000000000000000000001A
:1006E00000000895EAB1EC7FEAB9089548E0519816
:1006F000DBDFDADF00000000000000000000000087
:100700000000000020FD02C0000001C0519ACCDFB3
:100710000000000000000000000026954A9539F70F
:1007200000005198000000000000000000000000E0
:1007300000000000000000000000000000000000B9
:10074000519A0895A1E5B1E030915001F894BBDFD2
:100750002D91CCDF3A95E1F7A7DFA6DF0000C2DFDD
:100760007894089580E291E0FBC280E88093610074
:100770001092610085B7806885BF85B7806885BFA6
:1007800080E291E08CD194D182EB93E099D1CFD2E9
:100790005BD2811103C080E291E0E2D280E291E07D
:1007A00090D1F6CF292F33272230310559F023304D
:1007B000310569F02130310519F582E190E023EC33
:1007C00031E022C089E990E02AE231E01DC099279A
:1007D0008130910561F040F08230910559F0039726
:1007E00079F4ECEAF0E008C0E6E2F1E005C0EAEFF7
:1007F000F0E002C0E6EBF0E0849190E09F0104C0DD
:1008000080E090E020E030E0FA0131832083089519
:10081000E0911401F0911501309709F009940895C1
:10082000E0911201F0911301309709F009940895B5
:1008300042E261EC81E00E944C0C42E261EC83E018
:100840000C944C0C80916201813099F4809161018B
:10085000813A79F48091E800877F8093E80064E131
:1008600070E08AE391E033D78091E8008B77809342
:10087000E800089580916001843099F481E08093CC
:10088000E9008091E80080FF0CC040E050E064E1A6
:1008900070E08AE391E0D1D68091E8008E77809372
:1008A000E8000895EAE3F1E084E1DF01982F1D926A
:1008B0009A95E9F781830895DDDF0C94450FA8959B
:1008C0000895882359F09FE088E10FB6F894A89521
:1008D000809360000FBE909360000BC00FB6F89439
:1008E000A8958091600088618093600010926000FC
:1008F0000FBED8DF0E943A0D7894089590931701A7
:10090000809316010895E1E5F1E08DE0DF011D928D
:100910008A95E9F78FE78483858386838783808739
:10092000818788E0848710924F010895ECDF109250
:100930004E018DE0809350013E984698BFDEE9E677
:10094000F0E0808182608083E89A78940895FC01C9
:10095000818D80935101908180915201992311F0F2
:10096000846001C08B7F80935201918180915201FC
:10097000992311F0816001C08E7F80935201938191
:1009800080915201992311F0886001C0877F809384
:100990005201928180915201992311F0826001C02D
:1009A0008D7F80935201908580915201992311F09F
:1009B000806101C08F7E80935201918580915201A8
:1009C000992311F0806201C08F7D80935201948140
:1009D00080915201992311F0806401C08F7B809334
:1009E0005201958180915201992311F0806801C0D4
:1009F0008F7780935201948580915401992311F04F
:100A0000806801C08F7780935401258548E0249F3A
:100A100090011124868544E0849FC0011124282B75
:100A2000392B8089282B878590E0880F991FF90141
:100A3000E82BF92BEE5FFE4F808180935D010895D6
:100A400086B186FB882780F991E089270895CF93A6
:100A5000DF93EC01F5DF8823F9F0489B1DC08091FE
:100A60004F018823C9F080914E01882321F0813005
:100A700089F468DE0FC08AB183608AB9E0911601FB
:100A8000F0911701309709F00995CE0160DF8AB126
:100A90008C7F8AB910924F01DF91CF9108952AE19E
:100AA000FC0111922A95E9F72BE1FC01218F0895B1
:100AB00081E007DF3BDF10921801109219010895C1
:100AC0001DCFCF93DF93EC01BBDF80931901909191
:100AD0001801891731F0E6DE16DF80911901809345
:100AE0001801EDDE80911901882369F0CE01AFDF96
:100AF0009C8580913D01992311F0846001C08B7F1A
:100B000080933D019EC09D8580913C01992311F009
:100B1000816001C08E7F80933C019E8580913C0165
:100B2000992311F0826001C08D7F80933C019F85E5
:100B300080913C01992311F0846001C08B7F8093E8
:100B40003C01988980913C01992311F0886001C093
:100B5000877F80933C01998580913C01992311F016
:100B6000806101C08F7E80933C01988580913C011B
:100B7000992311F0806201C08F7D80933C0199819F
:100B800080913D01992311F0806101C08F7E809397
:100B90003D019A8180913D01992311F0806201C04D
:100BA0008F7D80933D01988180913D01992311F0C3
:100BB000806401C08F7B80933D019B8180913D01CA
:100BC000992311F0806801C08F7780933D019C814B
:100BD00080913D01992311F0816001C08E7F809347
:100BE0003D019D8180913D01992311F0826001C0FA
:100BF0008D7F80933D019C8580913D01992311F06B
:100C0000846001C08B7F80933D019A8580913C0177
:100C1000992311F0806401C08F7B80933C019B85F8
:100C200080913C01992311F0806801C08F778093F7
:100C30003C018E81819580933E018F8181958093C7
:100C40003F01DF91CF9138CEFBCE86988E9A809867
:100C5000889A8198899A84988C9A85988D9A6E98AA
:100C6000769A3F98479A24982C9A25982D9A5798C7
:100C70005F9A26982E9A10927A0010927C0008951E
:100C8000811110921A0180911A01811119C080916D
:100C90000001843030F4823060F4813071F4E5D1A9
:100CA0000DC0893041F08F3041F0873031F4BDD331
:100CB00005C064D103C0DCD201C0CFD080931A013B
:100CC00008953F98479A24982C9A25982D9A5798DA
:100CD0005F9A2FEF80E792E0215080409040E1F74B
:100CE00000C0000049B173B163B156B1441F44273D
:100CF000441F440F440F440F551F5527551F452BC4
:100D000075FB222720F930E0220F331F220F331FFB
:100D1000242B64FB882780F990E0880F991F822B91
:100D20008093000181E0ACDF10921D0108958DDFFA
:100D30008FE08093000110921D0110921C0110920F
:100D40001A0110921B0127982F9AE8E6F0E08081A3
:100D500081608083EBE6F0E0808180688083B1CFA2
:100D6000CF93DF93EC0180911B01882329F0CE0102
:100D700096DE10921B0143C080911C01882361F014
:100D80008FE19EE40197F1F700C0000080911C0103
:100D9000815080931C0133C080911D01882311F084
:100DA00090DF02C080E06CDF80911A01882339F166
:100DB00080910001833099F040F48130A1F08230BD
:100DC000D1F4CE01DF91CF911FC1893081F08F30F6
:100DD00091F0873081F4CE01DF91CF9136C3CE01FF
:100DE000DF91CF91D1C0CE01DF91CF914EC1CE0125
:100DF000DF91CF914BC2CE01DF91CF9146C0DF9101
:100E0000CF9108951F920F920FB60F9211242F9336
:100E10003F934F935F936F937F938F939F93AF9382
:100E2000BF93EF93FF9311DF81E080931B018093C9
:100E30001D0184E680931C01FF91EF91BF91AF915A
:100E40009F918F917F916F915F914F913F912F91E2
:100E50000F900FBE0F901F90189586988E9A8098CD
:100E6000889A8198899A84988C9A85988D9A6E9898
:100E7000769A3F98479A24982C9A25982D9A5798B5
:100E80005F9A26982E9A81E00895FC0183B186FB33
:100E9000882780F991E0892785878FB185FB88278E
:100EA00080F98927868789B1881F8827881F892725
:100EB00087878FB1829581708927808B4FB146FBE0
:100EC000442740F9842F8927808756B1551F55271D
:100ED000551F852F8927818783B185FB882780F956
:100EE000892781838FB1869581708927828383B119
:100EF0008295817089278083789B07C02CB126FB5F
:100F0000222720F99227292F02C021E030E02383F5
:100F1000511102C081E0411180E084878BE1818F13
:100F2000089588988E98889A25E02A95F1F7000010
:100F300088984FB141FB222720F930E041E050E092
:100F400048175907BCF48E9A65E06A95F1F70000DE
:100F50008E98EFB1E1FB662760F970E0FB01042E8B
:100F600002C0EE0FFF1F0A94E2F72E2B3F2B4F5FBC
:100F70005F4FE6CFC901809590950895869A809A33
:100F80008198899A81E00895CF93DF93EC0180E105
:100F900090E0C7DF84FB222720F92D8785FB2227DD
:100FA00020F92E8786FB222720F92F8787FB22270F
:100FB00020F9288B81FB222720F92883282F2170F4
:100FC0002983292F21702A8392FB222720F92C8341
:100FD00093FB222720F92D8391FB222720F92B83D5
:100FE00083FB222720F9298782FB222720F92887E3
:100FF0008C70992721E00C9709F020E02C878BE179
:10100000898FDF91CF910895CF93DF93EC0188E032
:1010100090E087DF84FB222720F92D8785FB22279C
:1010200020F92E8786FB222720F92F8787FB22278E
:1010300020F9288B81FB222720F92983282F217072
:101040002A8383FB222720F9298782FB222720F984
:1010500028878C70992721E00C9709F020E02C87D5
:1010600082E1898FDF91CF91089586988E9A80983A
:10107000889A8198899A84988C9A85988D9A6E9A84
:10108000769A3F98479A81E00895FC0185E1809324
:101090001E01769A2AE42A95F1F700C08FB186FBEB
:1010A000882780F991E0892790E0789B03C060E071
:1010B00070E002C062E070E0862B972B799B03C042
:1010C00060E070E002C064E070E0862B972B7C9BB0
:1010D00003C040E050E002C048E050E0842B952B74
:1010E0007D9B03C020E030E002C020E130E0822B95
:1010F000932B379B03C020E030E002C020E230E0B9
:10110000822B932B7698AAE4AA95F1F700C07999DF
:1011100071C07C996FC07D9B03C040E050E002C06D
:1011200040E450E0842B952B379B03C040E050E017
:1011300002C040E850E0482B592B769ABAE4BA95A1
:10114000F1F700C076982AE42A95F1F700C07E995D
:101150004BC0789949C0799947C07C9945C0769A27
:101160008AE48A95F1F700C02FB126FB222720F9E7
:1011700091E0292730E0789B03C080E090E002C036
:1011800082E090E0822B932B799B03C0A0E0B0E03B
:1011900002C0A4E0B0E08A2B9B2B7C9B03C060E0E4
:1011A00070E002C068E070E0862B972B7698AAE486
:1011B000AA95F1F700C07E9B03C020E030E002C09A
:1011C00020E130E0822B932B769ABAE4BA95F1F7BE
:1011D00000C0769826E120931E01AFE3BFE111978E
:1011E000F1F700C0000002C080E090E0982F88274F
:1011F000842B952B9C012170258781FB442740F986
:10120000468782FB442740F9478783FB442740F900
:10121000408B86FB442740F9408384FB442740F9F8
:10122000418385FB442740F9428392FB442740F9E0
:1012300044833170358391FB332730F93383AC011C
:10124000440F452F441F550B4170418793FB3327B3
:1012500030F93087222311F0411104C0892F829583
:10126000817001C081E0848780911E01818F089583
:1012700086988E9A8198899A84988C9A85988D9A66
:101280006E9A769A3F9A479881E00895FC0186E02D
:1012900080931F01769A479882E090E020E030E04A
:1012A00061E076E3479845E04A95F1F700007E99C2
:1012B00032C0799930C07C992EC07D992CC0769827
:1012C00045E04A95F1F700007E9B03C040E050E006
:1012D00002C040E051E0242B352B799B03C040E055
:1012E00050E002C040E052E0242B352B7C9B03C031
:1012F00040E050E002C040E054E0242B352B7D9BC1
:1013000003C040E050E002C040E058E0242B352B01
:1013100070931F014AC04FB146FB442740F946274E
:10132000242B799B03C040E050E002C042E050E033
:10133000242B352B7C9B03C040E050E002C044E0EE
:1013400050E0242B352B7D9B03C040E050E002C0D1
:1013500048E050E0242B352B769845E04A95F1F78C
:1013600000007E9B03C040E050E002C040E150E03E
:10137000242B352B799B03C040E050E002C040E2B3
:1013800050E0242B352B7C9B03C040E050E002C092
:1013900040E450E0242B352B7D9B03C040E050E01F
:1013A00002C040E850E0242B352B769A479A0197EB
:1013B00009F078CF822F8170858722FB882780F9FA
:1013C000868723FB882780F9878721FB882780F978
:1013D000808B25FB882780F9818324FB882780F96F
:1013E000828331FB882780F98083832F81708383F8
:1013F00032FB882780F98483832F8695869586958E
:10140000858327FB882780F9818726FB882780F939
:101410008087207C332781E0203C310509F080E083
:10142000848780911F01818F089586988E9A809875
:10143000889A6E98769A3F98479A819A899A859A5F
:101440008D9A84988C9A81E008956F927F929F92F2
:10145000AF92BF92CF92DF92EF92FF920F931F93C2
:10146000CF93DF93FC01899A8D9A55E25A95F1F753
:101470000000669B03C0C12CD12C03C0C12C20E10D
:10148000D22E89988D9A85E28A95F1F70000789B93
:1014900003C0E12CF12C03C0E12CFF24F3947E9BCC
:1014A00003C000E010E002C000E012E0379B03C080
:1014B000C0E0D0E002C0C0E0D4E0669B03C0A0E082
:1014C000B0E002C0A0E0B8E0899A8D9855E25A9544
:1014D000F1F70000789B03C060E070E002C060E1BB
:1014E00070E07E9B03C040E050E002C040E250E06C
:1014F000379B03C0612C712C03C080E4682E712CD3
:10150000669B03C020E030E002C020E830E089980C
:101510008D9885E28A95F1F700009FB0909490FA3B
:10152000AA24A0F8B12CCA28DB28EC28FD280E2913
:101530001F29C02BD12BAC2BBD2B6A2B7B2B462B11
:10154000572BC301842B952B282B392B7E9B03C053
:1015500080E090E002C082E090E0282B392B379B9E
:1015600003C080E090E002C084E090E0282B392B9B
:10157000669B03C080E090E002C088E090E0282BEA
:10158000392B89988D9855E25A95F1F70000832FF1
:101590008170858731FB882780F9868732FB882711
:1015A00080F9878733FB882780F9808B26FB882783
:1015B00080F9808324FB882780F9818325FB882795
:1015C00080F9828322FB882780F9848321FB882786
:1015D00080F98383822F81708583432F42954F70DA
:1015E0004683C90153E0969587955A95E1F7982F60
:1015F0009170978327FB882780F981872078317045
:1016000081E02038314009F080E08487442319F0DC
:1016100081E0911101C080E0808783E0818FDF91BC
:10162000CF911F910F91FF90EF90DF90CF90BF90DF
:10163000AF909F907F906F900895CF92DF92EF923E
:10164000FF920F931F93CF93DF93EC018B017A01ED
:1016500077D1811133C0E114F10439F0F7018081B1
:101660009181081B190BC80FD91FC12CD12C011552
:10167000110519F18091E80085FD16C08091E80000
:101680008E778093E80001D4E114F10449F0F7016A
:1016900080819181C80ED91ED182C08285E00EC0A2
:1016A0004FD1882321F30AC089918093F100015022
:1016B0001109FFEFCF1ADF0ADACF80E0DF91CF9177
:1016C0001F910F91FF90EF90DF90CF9008952091A0
:1016D0006701309168012617370748F061157105D9
:1016E00039F42091E8002E772093E80001C0B90179
:1016F000382F492F20E06115710509F441C0809110
:101700006001882309F44FC0853009F44EC08091F0
:10171000E80083FD4CC08091E80082FD3EC08091CE
:10172000E80080FFE8CF5091F3002091F200822F73
:1017300090E0952BE32FF42F8E1B9F0BAF01480FEA
:10174000591F209101016115710559F0A22FB0E0D8
:101750004A175B0730F421912093F1006150710921
:10176000EDCF822F90E021E08417950709F020E06B
:101770008091E8008E778093E8003E2F4F2FBBCFFB
:101780002111BDCF0AC080916001882361F08530AE
:1017900061F08091E80083FD0AC08091E80082FF3B
:1017A000F2CF80E0089582E0089583E0089581E01B
:1017B000089520916701309168012617370748F096
:1017C0006115710539F42091E8002E772093E80027
:1017D00001C0B901382F492F20E06115710509F4C6
:1017E00042C080916001882309F450C0853009F41B
:1017F0004FC08091E80083FD4DC08091E80082FDDC
:101800003FC08091E80080FFE8CF5091F300209125
:10181000F200822F90E0952BE32FF42F8E1B9F0B6D
:10182000AF01480F591F209101016115710561F049
:10183000A22FB0E04A175B0738F424912093F100FF
:10184000319661507109ECCF822F90E021E084172E
:10185000950709F020E08091E8008E778093E800FA
:101860003E2F4F2FBACF2111BCCF0AC0809160010B
:10187000882361F0853061F08091E80083FD0AC023
:101880008091E80082FFF2CF80E0089582E0089521
:1018900083E0089581E00895982F973068F590933C
:1018A000E900981739F07091EC002091ED0050910B
:1018B000F00003C0242F762F50E021FD02C09F5F6F
:1018C000ECCF3091EB003E7F3093EB003091ED0098
:1018D0003D7F3093ED003091EB0031603093EB00B1
:1018E0007093EC002093ED005093F0002091EE00F7
:1018F00027FDE5CF80E008958F708093E90081E0B7
:1019000008958091610187FF11C08091E80082FDF8
:1019100005C0809160018111F8CF11C08091E8006D
:101920008B770BC080916001882349F08091E8009B
:1019300080FFF8CF8091E8008E778093E8000895CB
:101940002091E4003091E50095E64091EC00842F71
:10195000817040FF23C08091E80080FD1DC0809110
:101960006001882399F0853099F08091EB0085FD26
:1019700011C04091E4005091E5002417350729F388
:10198000915011F09A01E1CF84E0089582E008952A
:1019900083E0089581E0089580E008954091E80093
:1019A00042FFDDCF0895CF93DF9300D0CDB7DEB7F0
:1019B00071D078D08091D8008F778093D8008091B3
:1019C000D80080688093D8008091D8008F7D809364
:1019D000D80019BC1092600110925E01AE014F5FF9
:1019E0005F4F60E070E080E091E00E94D203892BBD
:1019F00031F0E981FA813796E491E0930101809119
:101A0000E0008B7F8093E0008091D800816080931C
:101A1000D8002091010130E088E090E040E082179A
:101A2000930720F44F5F880F991FF9CF4295407FAD
:101A3000426060E080E030DF8091E1008E7F809343
:101A4000E1008091E20081608093E2008091E200F9
:101A500088608093E2008091E0008E7F8093E000B8
:101A60008091D80080618093D8000F900F90DF9113
:101A7000CF910895E8EDF0E080818F7E8083E7EDDF
:101A8000F0E080818160808384E082BF81E0809388
:101A90005F0189CFE8EDF0E080818E7F8083109236
:101AA000E20008951092DA001092E10008951F926A
:101AB0000F920FB60F9211242F933F934F935F9382
:101AC0006F937F938F939F93AF93BF93EF93FF9306
:101AD0008091E10082FF0AC08091E20082FF06C08F
:101AE0008091E1008B7F8093E100CED18091DA007C
:101AF00080FF1FC08091D80080FF1BC08091DA005A
:101B00008E7F8093DA008091D90080FF0DC080E144
:101B100089BD82E189BD09B400FEFDCF81E08093DB
:101B200060010E94080405C019BC109260010E9467
:101B300010048091E10080FF18C08091E20080FFD6
:101B400014C08091E2008E7F8093E2008091E200D9
:101B500080618093E2008091D80080628093D800F9
:101B600019BC85E0809360018FD18091E10084FFF2
:101B70002FC08091E20084FF2BC080E189BD82E10B
:101B800089BD09B400FEFDCF8091D8008F7D809380
:101B9000D8008091E1008F7E8093E1008091E20087
:101BA0008F7E8093E2008091E20081608093E2006A
:101BB00080915E01882311F084E007C08091E300EA
:101BC00087FD02C081E001C083E0809360015CD1A9
:101BD0008091E10083FF31C08091E20083FF2DC03E
:101BE0008091E100877F8093E10082E08093600133
:101BF00010925E018091E1008E7F8093E1008091E0
:101C0000E2008E7F8093E2008091E2008061809309
:101C1000E2002091010130E088E090E040E082178E
:101C2000930720F44F5F880F991FF9CF4295407FAB
:101C3000426060E080E030DE27D1FF91EF91BF91FC
:101C4000AF919F918F917F916F915F914F913F9154
:101C50002F910F900FBE0F901F9018951F93CF9349
:101C6000DF9300D0CDB7DEB7E1E6F1E089E691E0A1
:101C70002091F10021938E179F07D1F70E94220433
:101C80008091E80083FFECC0809161019091620136
:101C9000953009F46FC030F4913071F168F09330F1
:101CA00059F1DEC0983009F4AAC0993009F4B6C0E1
:101CB000963009F0D5C080C0803899F0823809F09C
:101CC000CFC0809165018F70873008F0C9C08093C4
:101CD000E9008091EB0085FB882780F91092E900EC
:101CE00001C080E09091E800977F9093E800809396
:101CF000F1001092F1008EC0282F2D7F09F0B0C0A6
:101D0000823009F0ADC08091630181112AC08091B9
:101D100065018F702FEF280F263008F0A1C0809347
:101D2000E9002091EB0020FF1CC0933021F480914A
:101D3000EB00806214C09091EB0090619093EB00F7
:101D400021E030E0A90102C0440F551F8A95E2F757
:101D50004093EA001092EA008091EB008860809343
:101D6000EB001092E9008091E800877F8093E80003
:101D7000C8DD76C0811174C0109163011F77809116
:101D8000E3008078812B8093E3008091E800877FD7
:101D90008093E800B6DD8091E80080FFFCCF809161
:101DA000E30080688093E300111102C082E001C06B
:101DB00083E08093600154C08058823008F050C0A6
:101DC0006091650170916601AE014F5F5F4F809138
:101DD0006301909164010E94D203BC01892B09F434
:101DE0003FC09091E800977F9093E80089819A81A5
:101DF000E0DC8091E8008B778093E80031C0803888
:101E000079F58091E800877F8093E80080915E01FA
:101E10008093F1008091E8008E77A8CF811120C0D7
:101E2000809163019091640199270297CCF480918D
:101E3000E800877F8093E8008091630180935E01D2
:101E400060DD80915E01811106C08091E30087FD15
:101E500002C081E001C084E0809360010E94180408
:101E60008091E80083FF0AC08091E800877F80931B
:101E7000E8008091EB0080628093EB000F900F9060
:101E8000DF91CF911F9108950895CF9380916001C4
:101E9000882399F0C091E900CF709091EC00892FD0
:101EA000817090FD80E8C82B1092E9008091E800D5
:101EB00083FDD4DECF70C093E900CF910895F894EC
:021EC000FFCF52
:101EC2000F080802060804030508000107080808AD
:021ED2000808FE
:00000001FF
